:020000040800F2
:10000000282A0020ED010008F1460008B53100085B
:1000100081380008CB0B0008ED75000800000000D7
:100020000000000000000000000000007F540008F5
:10003000E12400080000000009520008695A000885
:10004000070200080702000807020008070200086C
:10005000070200080702000807020008070200085C
:10006000070200080702000807020008070200084C
:10007000070200080702000807020008070200083C
:10008000070200080702000807020008070200082C
:10009000D10B000807020008070200080702000849
:1000A000070200080702000807020008070200080C
:1000B0000968000807020008070200080702000894
:1000C00007020008070200080702000807020008EC
:1000D00007020008070200080702000807020008DC
:1000E00007020008070200080702000800000000DD
:1000F0000000000000000000000000000000000000
:1001000000000000000000000702000807020008CD
:100110005D6C0008070200080702000807020008DB
:10012000070200080702000807020008070200088B
:10013000070200080702000807020008070200087B
:10014000FD0C00080702000807020008070200086B
:1001500000F002F800F03AF80AA090E8000C82449F
:100160008344AAF10107DA4501D100F02FF8AFF27C
:10017000090EBAE80F0013F0010F18BFFB1A43F085
:1001800001031847E8D1000008D20000103A24BF4C
:1001900078C878C1FAD8520724BF30C830C144BFEC
:1001A00004680C607047000000230024002500262E
:1001B000103A28BF78C1FBD8520728BF30C148BFCA
:1001C0000B6070471FB51FBD10B510BD00F07AF869
:1001D0001146FFF7F7FF08F061F800F098F803B454
:1001E000FFF7F2FF03BC00F09FF8000009488047CA
:1001F00009480047FEE7FEE7FEE7FEE7FEE7FEE709
:10020000FEE7FEE7FEE7FEE704480549054A064B20
:10021000704700006D5A0008510100082824002092
:10022000282A002028260020282600204FF000023F
:100230000429C0F0128010F0030C00F01B80CCF1F8
:10024000040CBCF1020F18BF00F8012BA8BF20F866
:10025000022BA1EB0C0100F00DB85FEAC17C24BFBA
:1002600000F8012B00F8012B48BF00F8012B704764
:100270004FF0000200B5134694469646203922BF3F
:10028000A0E80C50A0E80C50B1F12001BFF4F7AF8A
:10029000090728BFA0E80C5048BF0CC05DF804EB6C
:1002A000890028BF40F8042B08BF704748BF20F8DA
:1002B000022B11F0804F18BF00F8012B70477047D8
:1002C00070477047754600F02BF8AE46050069464A
:1002D000534620F00700854618B020B5FFF794FF7D
:1002E000BDE820404FF000064FF000074FF0000837
:1002F0004FF0000B21F00701AC46ACE8C009ACE8B8
:10030000C009ACE8C009ACE8C0098D46704710B51B
:100310000446AFF300802046BDE81040FFF75FBF02
:1003200000487047C423002001491820ABBEFEE7F7
:1003300026000200704700002DE9FF5FF6480189A2
:10034000F6480088C01C814206DCF3480189F34866
:100350000088C01E81420DDAEF49088902F090FE44
:10036000044609F033FAEC4981F820000846008978
:10037000EA490880E8484189E9480088C01C814270
:1003800006DCE5484189E6480088C01E81420CDA57
:10039000E1494989881002F029FE40B2DE4981F81E
:1003A000280008464089DE490880DB488189DD480D
:1003B0000088C01C814206DCD7488189D948008862
:1003C000C01E81420CDAD4498989881002F00EFEE1
:1003D00040B2D14981F8290008468089D149088076
:1003E000CD48418BD0480088C01C814206DCCA48F9
:1003F000418BCD480088C01E81420ADAC649498B2C
:10040000881002F0F3FDC44908860846408BC649AF
:100410000880C148018AC5480088C01C814206DCAA
:10042000BD48018AC1480088C01E81420BDABA4922
:10043000098A881002F0EEFDB749A1F89C0208462F
:10044000008ABA490880B448C189B9480088C01CEC
:10045000814206DCB048C189B5480088C01E81428F
:100460000CDAAD49C989881002F0C0FD40B2AA4932
:1004700081F82A000846C089AD490880A648018B4A
:10048000AC480088C01C814206DCA348018BA94807
:100490000088C01E81420ADA9F49098B881002F049
:1004A000A5FD9D49C8850846008BA24908809A4849
:1004B000C188A1480088C01C814206DC9648C188DA
:1004C0009D480088C01E814241DA9349C98888103E
:1004D00009F09CF9834609F01DF84FF06632974BFE
:1004E000CDE9020108F0F8FD06460022944B08F021
:1004F000F3FD04460022934B08F0D2FB804608F03F
:10050000E9FA8246504609F061F900F0FF084046DA
:1005100009F094F90546514609F0D5FA044608F069
:10052000F9FF0646884A894B08F0D4FE06D25046A9
:1005300009F04CF9401C7849087704E0504609F06E
:1005400045F9754908777448C0887B490880724826
:10055000C18A7F480088C01C814206DC6E48C18A7F
:100560007B480088C01E81427DDA6B49C88A08F04A
:1005700063FD4FF06632714BCDE9020108F0ACFD2E
:10058000804600224FF0804308F0A6FD0646002278
:10059000704B08F085FB044608F09CFA8246002167
:1005A000504609F05FFA1FD2504608F0B3FF002210
:1005B000694BCDE9000108F0C3FE80460022674B7D
:1005C00008F06EFB06460022654B08F085FD0446E8
:1005D0000022644B08F0B0FACDE9020108F0E8FC13
:1005E0004D49A1F89A0203E000204B49A1F89A0274
:1005F0004949B1F89A12643188B202F097FD464930
:10060000A1F89E020846B0F99E020A2190FBF1F281
:1006100001FB1200052808DB3F48B0F89E020A30B3
:1006200000B23D49A1F89E020FE03B48B0F99E029E
:100630000A2190FBF1F201FB12003749B1F89E123A
:10064000081A00B23449A1F89E023348B0F99E025C
:100650000A2190FBF1F000B22F49A1F89E02084652
:10066000C08A3B4908802C48818A3F480088C01CCA
:10067000814206DC2848818A3B480088C01E8142AE
:1006800047DA2549888A08F0D7FC4FF066322B4BB1
:10069000CDE9020108F020FD064600224FF080431C
:1006A00008F01AFD044600222A4B08F0F9FA8046A9
:1006B00008F010FA82460021504609F0D3F804D21F
:1006C00000201549A1F8A4021FE0504608F022FFBF
:1006D00006460022204B08F033FE80461A4A234B80
:1006E00008F0DEFA00221E4BCDE9000108F0F4FC10
:1006F000044600221B4B08F01FFACDE9020108F066
:1007000027FC00B20449A1F8A4020348808A1649D4
:100710000880BDE8FF9F0000DC000020760000207C
:10072000780000207A0000208A0000207E0000204F
:100730007C000020880000208200002066660A40BD
:100740000000354000E06F409A9999999999D93FF6
:10075000840000200000B0400000E03F0000F83FAF
:1007600000408F4000005940860000209999E93FE1
:1007700021B1826842F00102826003E0826822F0C7
:1007800001028260704721B1826842F48072826007
:1007900003E0826822F480728260704710B50446DC
:1007A0001248844208D10121401504F091FD002136
:1007B000601504F08DFD17E00D48844208D1012139
:1007C000001504F085FD0021201504F081FD0BE0EB
:1007D0000848844208D10121C80304F079FD0021B2
:1007E0004FF4004004F074FD10BD000000240140EF
:1007F00000280140003C0140014600208A6802F0C8
:1008000004020AB1012000E00020704701460020E8
:100810008A6802F008020AB1012000E00020704757
:1008200030B502460020002350680F4C20400D795F
:100830000C6844EA05242043506090680B4C20402B
:10084000D1E902542C434D7944EA45042043906099
:10085000D06A20F470000C7C641EE4B2234340EAAA
:100860000350D06230BD0000FFFEF0FFFDF7F1FF46
:10087000F0B504460D4600200021092D11DDE06889
:10088000A5F10A0606EB4607072606FA07F1884394
:10089000A5F10A0606EB460603FA06F10843E060F6
:1008A0000CE0206905EB4507072606FA07F18843A7
:1008B00005EB450603FA06F108432061072A0FDA23
:1008C000606B561E06EB86071F2606FA07F1884363
:1008D000561E06EB860605FA06F10843606322E021
:1008E0000D2A0FDA206BD61F06EB86071F2606FAA5
:1008F00007F18843D61F06EB860605FA06F1084382
:10090000206310E0E06AA2F10D0606EB86071F26C1
:1009100006FA07F18843A2F10D0606EB860605FAF2
:1009200006F10843E062F0BD816841F00801816092
:100930007047000010B5634800886349634A127825
:1009400021F812005F484088801061495F4A1278A0
:1009500021F812005B48808880105E495B4A12785B
:1009600021F812005748C08880105B49574A127816
:1009700021F812005348008980105849534A1278D0
:1009800021F812004F484089801055494F4A12788B
:1009900021F812004B48818952484C4A127820F8BD
:1009A00012104848C0895049484A127821F812006C
:1009B0004448008A80104D49444A127821F81200B8
:1009C0004048408A80104A49404A127821F8120073
:1009D0003E480078401C3D490870084600780A28C7
:1009E0006FDB44480078322804DA42480078401C23
:1009F00040490870002035490870334802F0D5F8A6
:100A0000044621463C4800F09DF83C4908813048A6
:100A100002F0CBF804462146394800F093F83749F4
:100A200048812C4802F0C1F804462146354800F0C0
:100A300089F832494883284802F0B7F8044621462D
:100A4000314800F07FF82D490882244802F0ADF8C3
:100A5000044621462D4800F075F8284908832048AF
:100A600002F0A3F804462146294800F06BF8234918
:100A7000C8801C4802F099F804462146254800F039
:100A800061F81E498882184802F08FF80446214612
:100A9000214800F057F81949C882144802F085F837
:100AA000044621461D4800F04DF81449888110483D
:100AB00002F07BF804462146194800F043F80F493C
:100AC000C88110BD4404002054050020740000209B
:100AD000A8050020FC05002050060020A4060020E8
:100AE000F80600204C070020A0070020F407002093
:100AF000480800209000002014050020DC000020A1
:100B000068050020BC0500201006002064060020B7
:100B1000B80600200C07002060070020B407002062
:100B20000808002021B1826842F4A002826003E03C
:100B3000826822F4A00282607047816841F004015B
:100B40008160704710B502460C460023002109E081
:100B500002EB4100408822F8110032F811000344F2
:100B6000481CC1B21F29F3DB22F8114032F81100F2
:100B7000034406480078202805DA04480078B3FBCF
:100B8000F0F080B210BDC3F34F10FBE790000020DF
:100B90002DE9F04105460E460024042701F0E6FF4A
:100BA0002C460CE0204601F029FF0746042F04D014
:100BB00001F062FF0120BDE8F08104F50064B44259
:100BC000F0D901F059FF0020F5E700BFFEE7000073
:100BD00010B5074802F0B4FB054A0021054801F0B2
:100BE000F1F901F00BF81E200349088010BD000048
:100BF000C8000020006400401A00002010B5124810
:100C00000078012803D100201049087010BD13E0BE
:100C10000E480078401E00EB80000D4A02EB800178
:100C20000C4801F057FA042805D008480078401E07
:100C30000649087000E003E0044800780028E7D186
:100C400000BF00BFE2E700001C00002018000020E9
:100C5000740400200064004010B586B0002405E054
:100C600000210DF10F000155601CC4B2082CF7DB08
:100C7000204890F862008DF80F001E48B0F862001E
:100C8000010A8DF810101B4890F8420028B9002086
:100C90008DF80F0000218DF81010164890F8E20230
:100CA00000EB80004006010E8DF81110114890F8FD
:100CB00042108DF81210B0F8620018B10D4890F88B
:100CC000420010B900218DF8121000218DF8131088
:100CD0004FF40E70019000208DF80D008DF80C007F
:100CE00008208DF80E0001A9034801F0F3F906B0C1
:100CF00010BD0000DC0000200068004010B5054871
:100D000002F01EFB034A0021034801F05BF900F0EA
:100D100005F810BDC8000020006800402A4800689F
:100D2000B0F5127F4ED12848007A00284AD12648D3
:100D3000807A082846D11E21244AA2F8E2112249CD
:100D4000CA7A097B42EA0121204AA2F8D6121E493A
:100D5000497B0A2291FBF2F11C4AA2F8E2121A49DD
:100D6000897B032903DC1849897BA2F8D81217492B
:100D700091F8D812154A82F841101146B1F8D412F0
:100D800061B9114691F85513012904D10E49C97B67
:100D90000F4A118002E000210D4A11800A49497C66
:100DA0000A4AA2F8DE120849887C4FF6FF7101EA70
:100DB0008001A2F8E0124FF6FF7101EA8001A2F86B
:100DC000201200BF70470000C8000020DC00002097
:100DD000B800002021B1012907D002290FD109E074
:100DE000826842F0800282600AE0826842F4004237
:100DF000826005E0826842F40002826000E000BF89
:100E000000BF704738B501210D2004F051FA4FF4AE
:100E10000060ADF8000004208DF803006946D94851
:100E200002F002F84FF48050ADF800006946D64851
:100E300001F0FAFF4FF48050ADF8000018208DF853
:100E4000030003208DF802006946CE4801F0ECFF54
:100E50004FF40050ADF800006946CB4801F0E4FFC4
:100E600001214FF0C06004F003FAC84800F0AEF969
:100E7000C74800F0ABF9C74801F01CF90020C5498C
:100E800088710120C87100200872487288720120A0
:100E9000C87200208870C870052008710020487151
:100EA00004200880B94800F03AFA0420B9490880C3
:100EB000B74800F034FA0022A121552006F098FA34
:100EC000B54C0120B54988720020C8720120087312
:100ED000600B0880042000EBC40048804FF6FF70D0
:100EE0008880C8800020088101204873084600F0EF
:100EF00089F9AB4C0220A94988720020C8720120F0
:100F00000873600B0880042000EBC40048804FF693
:100F1000FF708880C880002008810120487308463F
:100F200000F070F99F4C0E209C4988720020C87216
:100F300001200873600B0880042000EBC400488087
:100F40004FF6FF708880C880002008810120487318
:100F5000084600F057F9944C0F2090498872002001
:100F6000C87201200873600B0880042000EBC400E5
:100F700048804FF6FF708880C880002008810120DB
:100F80004873084600F03EF9884C10208349887267
:100F90000020C87201200873600B0880042000EB59
:100FA000C40048804FF6FF708880C8800020088108
:100FB00001204873084600F025F97D4C112077493F
:100FC00088720020C87201200873600B088004201A
:100FD00000EBC40048804FF6FF708880C880002076
:100FE000088101204873084600F00CF94FF4127490
:100FF00012206A4988720020C872012008736005B7
:10100000000C0880002040EA445048804FF6FF70F2
:101010008880C8800020088101204873084600F0BD
:10102000F1F8644C03205D4988720020C8720120E9
:101030000873600B0880042000EBC40048804FF662
:10104000FF708880C880002008810120487308460E
:1010500000F0D8F8584C0420504988720020C8721B
:1010600001200873600B0880042000EBC400488056
:101070004FF6FF708880C8800020088101204873E7
:10108000084600F0BFF84D4C052044498872002006
:10109000C87201200873600B0880042000EBC400B4
:1010A00048804FF6FF708880C880002008810120AA
:1010B0004873084600F0A6F8414C0720374988726B
:1010C0000020C87201200873600B0880042000EB28
:1010D000C40048804FF6FF708880C88000200881D7
:1010E00001204873084600F08DF8364C06202B4945
:1010F00088720020C87201200873600B08800420E9
:1011000000EBC40048804FF6FF708880C880002044
:10111000088101204873084600F074F82A4C142016
:101120001E4988720020C87201200873600B088075
:10113000042000EBC40048804FF6FF708880C88010
:101140000020088101204873084600F05BF8641C09
:101150001520124988720020C87201200873600BA4
:101160000880042000EBC40048804FF6FF708880A0
:10117000C8800020088101204873084600F042F82A
:1011800038BD000000080140000C01400064004030
:101190000068004058040020A8C1FF186404002023
:1011A000A8C2FF18918308189183091891830A181F
:1011B00091830B186696FF187797FF188898FF1889
:1011C0009999FF18A9B1FF1803C5FA1810B504467C
:1011D0000B48844209D10121480604F059F8002146
:1011E0004FF0007004F054F808E00121880604F084
:1011F0004FF800214FF0806004F04AF810BD000065
:101200000064004010B50021837A012202FA03F144
:101210003D4A126842F001023B4B1A603A4A1C32C6
:1012200012688A43384B1C331A60027BCAB9364AAB
:101230000C3212688A43344B0C331A604288C388DC
:1012400042EA0343304A4032847A42F8343002881A
:10125000838842EA03432C4A4032847A02EBC40278
:101260005360027B012A19D1274A0C3212680A43C3
:10127000254B0C331A604288038842EA0343224A12
:101280004032847A42F83430C288838842EA034389
:101290001D4A4032847A02EBC4025360C27A3AB9E2
:1012A000194A121D12688A43174B1B1D1A6006E06B
:1012B000154A121D12680A43134B1B1D1A6002893E
:1012C00032B9114A143212688A430F4B14331A6030
:1012D0000289012A06D10C4A143212680A430A4BC9
:1012E00014331A60427B012A06D1074A1C32126865
:1012F0000A43054B1C331A60034A126822F00102AC
:10130000014B1A6010BD0000006600401AB143692D
:101310000B43436102E043698B434361704730B53F
:10132000024600200023146824F0020414601468AC
:1013300044F00104146000E05B1C546804F00104F4
:101340001CB94FF6FF74A342F6D1546804F00104AF
:101350000CB900206CE08C79012C04D1146844F0A5
:101360008004146003E0146824F080041460CC79D5
:10137000012C04D1146844F04004146003E01468A4
:1013800024F0400414600C7A012C04D1146844F059
:101390002004146003E0146824F0200414604C7AE4
:1013A000012C04D1146844F01004146003E01468A4
:1013B00024F0100414608C7A012C04D1146844F0D9
:1013C0000804146003E0146824F008041460CC7A64
:1013D000012C04D1146844F00404146003E0146880
:1013E00024F0040414608C78A407CD7844EA0564E2
:1013F0000D7944EA05444D7944EA05540D886D1E83
:101400002C43D461146824F001041460002300E02C
:101410005B1C546804F001041CB14FF6FF74A34236
:10142000F6D1546804F001040CB1002000E0012062
:1014300030BD0000F0B5514E3678012E00D1F0BD20
:101440004F4E3678012E7DD1002505E0002700F1B2
:101450000B0677556E1CF5B2082DF7DB494E96F852
:10146000816006F00303474E96F8836006F003049C
:10147000444E96F8806006F00306022E01D1012248
:1014800000E000223F4E96F8806006F00306012E31
:1014900001D1012100E0002143EA840646EA021658
:1014A00046EA8116C672374E96F8846006F003034A
:1014B000344E96F8856006F00304324E96F8A0622A
:1014C00006F003022F4E96F88B6006F0030143EA04
:1014D000840646EA021646EA81164673294E96F8B5
:1014E0008E6006F00303274E96F8906006F0030224
:1014F000244E96F8916006F00301224E96F88F6014
:1015000006F0030443EA840646EA021646EA811618
:1015100086731C4E96F8876006F00301194E96F804
:10152000926061F39F06174F97F8897046EA071695
:10153000144F97F8E27046EA8716C673114E96F874
:10154000966000E018E00F4F97F8A57046EA8716FE
:1015500046740D4E377807740A4E96F8207207735A
:10156000B6F8206237128774084E4660002646722D
:10157000042606720826867200BF60E71C00002061
:1015800019000020DC000020B8000020A9C3FF18CB
:101590002DE9F04786B0044661480078012802D161
:1015A00006B0BDE8F0875F48007801287ED10025AD
:1015B00005E0002104F10B004155681CC5B2082D5F
:1015C000F7DB594890F8A70100F00F00E072E07ACD
:1015D000554991F8B01001F0030140EA0110E072A2
:1015E000E07A514991F8A81101F0030140EA811015
:1015F000E0724D4890F8580000F00F012173207BF5
:10160000494991F85C1001F00F0140EA0111217382
:10161000454890F898008001434991F8991040EAB4
:101620000110414991F8971040EA81003E4991F834
:10163000AC10084360733C4890F82A023A4991F88C
:1016400014120844A0733849D1F8C00207F062FFB1
:101650000022364BCDE9000107F06EFA0022344B30
:10166000CDE9020107F038FDCDE9040107F070FC77
:1016700006B2FA2E01DDFA2602E0002E00DA00267C
:10168000E673294890F83E0000F00307264890F8DA
:101690003D0000F00308244890F8600200F00309C0
:1016A000214890F84E0000F0010A00E035E047EADA
:1016B000880040EA091040EA8A1020741A48B0F9FC
:1016C0009C020A2190FBF1F028306074A07C16493E
:1016D00091F8A11201F003010843A074A07C124903
:1016E00091F8511001F0030140EA8101A174A07C3E
:1016F0000D4991F8551040EA0110A074A07C0A49E8
:1017000091F89F1140EA8110A0740A48606000209F
:101710006072042020720820A07200BF40E7000021
:101720001C00002019000020DC00002000002940DF
:1017300000002440A9C1FF182DE9F04704463848AD
:101740000078012801D1BDE8F087364800780128EB
:1017500064D1002505E0002104F10B004155681C0F
:10176000C5B2082DF7DB304991F8201048B208F0D7
:101770004DF881462C4991F8200008F05FF8824628
:10178000494608F0ABF98046284908F09FF807461B
:10179000002108F067F904D22549484607F0E6FE23
:1017A00003E02449484607F0E1FE064608F00EF83B
:1017B000E0721D4890F82800283020731A4890F8ED
:1017C000300028306073184890F84910A17390F8E1
:1017D0008E12E173B0F88E02010A2174124890F85B
:1017E000A301114991F8B11040EA81000E4991F826
:1017F000B21040EA81100C4991F8AB1140EA011097
:101800006074094890F82E002830A0740A4860607F
:1018100000206072042020720820A07200BF92E7AE
:101820001C00002019000020DC00002000002041E6
:101830000000244200002042A9C2FF1870B50446EF
:1018400026480078012800D170BD2548007801287D
:1018500041D1002505E0002104F10B004155681C31
:10186000C5B2082DF7DB1F4890F86200E0721D48F2
:10187000B0F86200010A21731A49086F1A4908F08A
:1018800025F8064607F0A2FF6073164890F842005C
:1018900000F00101A173134890F82412E17390F84D
:1018A0005B02104991F8441040EA81000D4991F81B
:1018B000D81240EA011020740A4890F8361061747A
:1018C000C08E0112A174094860600020607204207B
:1018D00020720820A07200BFB6E700001C000020A4
:1018E00019000020DC00002000002041A9C4FF18DE
:1018F000204A1278012A00D170471F4A1278012A23
:1019000036D1002105E0002300F10B0253544A1C9C
:10191000D1B20829F7DB194A92F8F322C272174AAA
:1019200092F8F432037392F8F532437392F8F63278
:10193000837392F8F732C37392F8F832037492F813
:10194000F932437492F84F2002F001020B4B93F8E6
:10195000393003F0010342EA8302837C1A43827424
:10196000074A4260002242720422027208228272F6
:1019700000BFC1E71C00002019000020DC0000208F
:10198000A9B2FF18214A1278012A00D17047204AD3
:101990001278012A38D1002105E0002300F10B0262
:1019A00053544A1CD1B20829F7DB1A4AB2F8E02294
:1019B0001212C272174A92F8E0320373B2F8DE22B2
:1019C00013124373134A92F8DE328373B2F89A22E9
:1019D0000A2392FBF3F2C2730E4AB2F86220642328
:1019E00092FBF3F202740B4AB2F82A2213124374E8
:1019F000084A92F82A328374074A426000224272EF
:101A0000042202720822827200BFBFE71C0000207D
:101A100019000020DC000020A9C5FF18234A127815
:101A2000012A00D17047224A1278012A3BD10021B5
:101A300005E0002300F10B0253544A1CD1B20829DF
:101A4000F7DB1C4A92F8EB22C2721A4A92F8EC3287
:101A5000037392F8ED32437392F8EE32837392F887
:101A6000EF32C37392F8F032037492F8F132437498
:101A700092F8E622D207520E0E4B93F8EA3203F0A8
:101A8000010342EA03120B4B93F8383003F00103D1
:101A900042EA83038374084A4260002242720422AD
:101AA00002720822827200BFBCE700001C00002006
:101AB00019000020DC000020A9C6FF18214A127876
:101AC000012A00D17047204A1278012A38D100211A
:101AD00005E0002300F10B0253544A1CD1B208293F
:101AE000F7DB1A4A92F89E222832C272174AD2F8BD
:101AF0000C220A23B2FBF3F20273144A92F8183252
:101B00004373B2F81822130A8373104AD2F81022D2
:101B10000A23B2FBF3F2C2730C4A92F81C3203742C
:101B2000B2F81C22130A4374084A92F847308374AF
:101B3000074A426000224272042202720822827224
:101B400000BFBFE71C00002019000020DC000020BF
:101B5000A9C7FF18254A1278012A00D17047244AE4
:101B60001278012A40D1002105E0002300F10B0288
:101B700053544A1CD1B20829F7DB1E4A92F8AE2012
:101B8000C2721C4AB2F8AE20130A0373194A92F8C3
:101B9000292028324273174A92F8862002F0030364
:101BA0008373144A92F82A202832C273114A92F899
:101BB0008720104B93F88A3042EA830202740D4A60
:101BC00092F8A62202F0030343740A4AB2F9A4224F
:101BD000642392FBF3F28274074A4260002242724D
:101BE000042202720822827200BFB7E71C000020A4
:101BF00019000020DC000020A9C8FF1808B5E8483B
:101C000000690090E6480FC805F038FCE4484068D9
:101C1000E449884214D1E248007A042810D1E0480F
:101C2000807A08280CD1DE48C07ADF49A1F8240365
:101C3000DB48007BA1F82603D948407BA1F82803A4
:101C4000D7484068D94988426BD1D548007A0428E2
:101C500067D1D348807A082863D1D148C07A00F090
:101C60000100D14981F85A02084690F85A02012829
:101C700003D0084690F8590218B10120CA490870EB
:101C800002E00020C8490870C7480078012805D143
:101C9000C348007B00F00F00C3494870C24890F869
:101CA0005A0230B9C04890F8590210B10220BE491A
:101CB0004870BB48C07AC0F38000BB4981F83F0040
:101CC000B748C07A000981F85A00B548407B2838E7
:101CD0004877B348807B81F85802B148807BC0F3D5
:101CE000001081F85503AE48C07B00F00F0008716A
:101CF000AB48C07B000981F8E100A948007C00F0F6
:101D00000F0081F85902A648007CC0F3001081F84A
:101D1000D300A348407CA1F87A02A148807CA1F8B6
:101D200076029F484068A24988423ED19C48007A8A
:101D300004283AD19A48807A082836D19848C07A3F
:101D4000994981F8D2029648007B81F87C02944838
:101D5000407B00F0030081F8A4009148407BC0F371
:101D6000810081F8E0008E48407BC0F3011081F8CB
:101D7000DB008B48407B800981F87D028848807BAE
:101D800000EB80004000A1F88A028548C07BA1F8E2
:101D90006A008348007CA1F86C008148407CA1F86F
:101DA00074027F48807CA1F878027D4840688149B0
:101DB00088424CD17A48007A042848D17848807A01
:101DC000082844D17648C07A00F00F007649A1F87F
:101DD0000C037348C07A0009A1F80E037048007B19
:101DE00000F0030081F810036D48007B8008A1F823
:101DF00012036B48407B322148436B49A1F814031E
:101E00006748807B322148436749A1F8160364483C
:101E1000C07B322148436449A1F818036048007C24
:101E2000A1F81A035E48407CA1F81C035C48807C42
:101E300000F00700A1F81E035948807CC0F3C200DF
:101E4000A1F820035648807C8009A1F82203544859
:101E500040685949884241D15148007A04283DD10F
:101E60004F48807A082839D14D48C07A4E49A1F8A8
:101E70002A034B48007BA1F82C034948407BA1F87A
:101E80002E034748807B322148434749A1F830035D
:101E90004348C07B322148434349A1F832034048BC
:101EA000007C322148434049A1F834033C48407C3F
:101EB00000EB80004000A1F836033948807C00F038
:101EC0000700A1F838033648807CC0F3C200A1F8AF
:101ED0003A033348807C8009A1F83C0330484068CD
:101EE000364988422AD12E48007A042826D12C4827
:101EF000807A082822D12A48C07A2B49A1F83E03CB
:101F00002748007BA1F840032548407BA1F8420305
:101F10002348807BA1F844032148C07BA1F84603F5
:101F20001F48007C00F00300A1F848031C48407CD7
:101F3000A1F84A031A48807C81F84C03184840688D
:101F40001F49884228D11648007A042824D1144811
:101F5000807A082820D11248C07A134981F84D03AD
:101F60000F48007B81F84E030D48407B81F84F03FA
:101F70000B48807B81F850030948C07B81F85103EE
:101F80000748007C81F852030548407C81F85303E0
:101F90000348807C81F85403014801F0D1F908BD61
:101FA000C8000020A9B1FF18DC000020A8C1FF185C
:101FB000A8C2FF186696FF187797FF188898FF1831
:101FC0009999FF1810B500F5D87303EB01131B683E
:101FD00003F004031372137A53B900F5D87303EBBB
:101FE00001131B6840F2FF7404EA5353136009E0C5
:101FF00000F5D87303EB01131B686FF0604404EA2B
:10200000D303536000F5D87303EB01131B6803F08F
:102010000203537200F5D87303EB01135B6803F0FE
:102020000F03937200F5D87303EB01135B681B0A6F
:10203000D37400F5D87303EB01139B68D37200F5DA
:10204000D87303EB01139B681C0A147300F5D87353
:1020500003EB01139B681C0C547300F5D87303EB5E
:1020600001139B681B0E937300F5D87303EB0113E8
:10207000DB68D37300F5D87303EB0113DB681C0A2C
:10208000147400F5D87303EB0113DB681C0C547453
:1020900000F5D87303EB0113DB681B0E937421B9B1
:1020A000C36843F02003C36003E0036943F02003E7
:1020B000036110BD00218171C17101724172817291
:1020C000C1728170C170032101710221417101212E
:1020D0000180704710B502460020936803F08063CA
:1020E000B3F1806F00D110E0936803F00063B3F1A7
:1020F000006F01D1012008E0936803F08053B3F131
:10210000805F01D1022000E00420042874D002F591
:10211000C07303EB00131B6803F0010402F5C073E6
:1021200003EB00131C600B7A7BB94B7A0C8843EAF3
:10213000445302F5C07404EB00142468234302F5F1
:10214000C07404EB0014236010E00B7A4C6843EA7F
:10215000C4034C7A234302F5C07404EB00142468D2
:10216000234302F5C07404EB001423608B7A03F060
:102170000F038B7202F5C07303EB00135B6823F04F
:102180000F0402F5C07303EB00135C6002F5C0732B
:1021900003EB00135B688C7A234302F5C07404EBF5
:1021A000001463608B7B1C064B7B44EA03440B7B6F
:1021B00044EA0323CC7A234302F5C07404EB0014F1
:1021C000A3608B7C1C064B7C44EA03440B7C44EAF2
:1021D0000323CC7B234302F5C07404EB0014E360BB
:1021E00002F5C07303EB00131B6843F0010402F512
:1021F000C07303EB00131C6010BD000010B5024655
:10220000002321B1012907D002290FD109E09068EC
:102210001D4C00EA04030BE090681C4C00EA040328
:1022200006E090681A4C00EA040301E0002300BFB6
:1022300000BF184C181BA34216D007DC83B16FF007
:102240008060184470B1022818D111E0B0F5007F09
:1022500010D0114C204448B1B0F5003F0ED10BE036
:1022600002230DE000230BE0002309E0002307E038
:10227000012305E0012303E0012301E0002300BF67
:1022800000BFD8B210BD0000030000040003000826
:1022900000000310000100080001FFF730B50246FE
:1022A0004FF0FF30002300BF09E011F8014B44401C
:1022B000E4B2054D55F8244084EA10205B1C93429B
:1022C000F3D3C04330BD00006CCF000810B5002030
:1022D00010490870488188818873C8738882886132
:1022E000C861A1F82A02A1F83403A1F83603FF213E
:1022F0000948FDF7BDFFFF2106482C30FDF7B8FF68
:10230000FF210648FDF792FF0248002101828174F7
:1023100010BD00005C080020900A00208709002002
:1023200010B500210548FEF755FD01210348FEF7D1
:1023300051FD02210148FEF74DFD10BD0064004033
:1023400021B1026842F00102026004E002684FF627
:10235000FE731A400260704701684FF6FE7211402A
:1023600001600021016041608160C1604B49884289
:1023700008D14A490839496841F00F01474A083AEB
:1023800051608AE045491431884208D143490839EF
:10239000496841F0F001414A083A51607DE03F4907
:1023A0002831884208D13D490839496841F47061B3
:1023B0003A4A083A516070E038493C31884208D1C5
:1023C00036490839496841F47041344A083A516045
:1023D00063E032495031884208D1304908394968B0
:1023E00041F470212D4A083A516056E02B4964317E
:1023F000884208D129490839496841F47001274ABF
:10240000083A516049E025497831884208D123498A
:102410000839496841F07061204A083A51603CE04F
:102420001F49884206D1011F096841F00F01021FB0
:10243000116032E01A491431884208D11849091F45
:10244000096841F0F001164A121F116025E0144995
:102450002831884208D11249091F096841F4706186
:102460000F4A121F116018E00D493C31884208D113
:102470000B49091F096841F47041094A121F116094
:102480000BE007495031884207D10549091F096807
:1024900041F47021024A121F116070470800024087
:1024A0000804024010B50022026847F6F0739A4310
:1024B0000C6A8B6823430C6923434C6923438C6962
:1024C0002343CC6923434C6A23438C6A23431A4336
:1024D0000260CB6843600B6883604B68C36010BDCB
:1024E00070470000224890F88700A0BB204890F970
:1024F0002A00022811DC4FF4FA701E4908801E4899
:10250000008828B11C480088401E1B4908802DE027
:102510000120174981F8B00028E0154890F92A00F9
:10252000042811DD4FF4FA7013490880114800881F
:1025300028B110480088401E0E49088016E000208F
:102540000B4981F8B00011E04FF4FA700A49088095
:10255000084908800AE0FFE70020054981F8B0003B
:102560004FF4FA700449088002490880704700005F
:10257000DC00002016000020140000209C48B0F869
:10258000980100B170479A480089B0F57A6F04DD70
:102590000120974981F884000CE095480089C828FB
:1025A00004DA0220924981F8840003E00020904977
:1025B00081F884008E484089B0F57A7F04DD0120DF
:1025C0008B4981F885000CE089484089182804DA95
:1025D0000220874981F8850003E00020844981F8C2
:1025E00085008348408BB0F57A7F04DD0120804967
:1025F00081F88B000CE07E48408B182804DA02201A
:102600007B4981F88B0003E00020794981F88B0039
:102610007748008AB0F57A7F04DD0120744981F89B
:10262000A0020CE07248008A182804DA02207049DF
:1026300081F8A00203E000206D4981F8A0026C48F7
:10264000008BB0F57A7F04DD0120694981F88900AB
:102650000CE06748008BA22804DA0220644981F864
:10266000890003E00020624981F88900604890F801
:10267000890010BB5E48B0F92E000A2810DA5C48C9
:10268000B0F8280138B15A48B0F82801401E58491E
:10269000A1F8280118E00120554981F88A0013E0CB
:1026A0005348B0F92E0017280EDB0020504981F85E
:1026B0008A006420A1F8280106E000204C4981F836
:1026C0008A006420A1F828014948C08AC82805DB8F
:1026D0004748C08A40F6C411884204DD01204449BD
:1026E00081F8A10203E00020414981F8A10240489D
:1026F0008089B0F57A7F04DD01203D4981F88600AC
:102700000CE03B488089182804DA0220384981F817
:10271000860003E00020364981F886003448C089ED
:10272000B0F57A7F04DD0120314981F887000CE0A3
:102730002F48C089182804DA02202D4981F8870023
:1027400003E000202A4981F887002948808AC828A8
:102750000ADB2748808AB0F57A6F05DC2448B0F997
:10276000A402B0F52F6F04DD0120214981F8A602F3
:1027700003E000201E4981F8A6021D484078032886
:1027800007D01B484078062803D01948407807280E
:102790001BD1174890F88700B8B9154890F92A005E
:1027A000442804DB0120124981F88F001EE0104804
:1027B00090F92A00382819DC00200D4981F88F0093
:1027C00081F8A10181F8A20110E0094890F92A00DE
:1027D000382803DD064890F8870038B10020044906
:1027E00081F88F0081F8A10181F8A20100BFC9E63C
:1027F000DC00002010B57748B0F85202401C754943
:10280000A1F852020846B0F85202B0F57A7F06DD10
:102810000020A1F8520202F0BFFFFFF781FD6E48D1
:10282000008800286AD16B48007F10280BDD6B48B8
:102830000088B8B94FF4967068490880022065494D
:1028400081F880000EE04FF4967064490880644877
:10285000008838B94FF47A706149088000205D49DA
:1028600081F880005B4890F88000022827D0594802
:1028700090F88000112822D05648007F0A280FDAED
:102880004FF47A705649088056480088B8B94FF41A
:1028900096705449088001204E4981F880000EE06E
:1028A0004FF496704F4908804D48008838B94FF46E
:1028B0007A704B4908800020464981F880004548DD
:1028C000007F09280BDA4848008838B94FF47A703D
:1028D0004549088011203F4981F880000EE04FF4FF
:1028E0007A70414908803E48008838B94FF47A70C0
:1028F0003B4908800020374981F88000FFF73EFE01
:10290000344890F8520020B10120324981F8830008
:1029100003E000202F4981F883002E4890F85500ED
:1029200020B101202B4981F8960003E000202949BD
:1029300081F89600274890F8540020B101202549DD
:1029400081F8AC0003E00020224981F8AC00214866
:1029500090F88000012814D11E4890F8B50018B1F5
:102960004FF4FA6021490880002005F045FC022060
:102970001849A1F86E02002081F85D0281F85E021C
:1029800010BD144890F88000022804D0114890F837
:10299000800011281BD100200E49A1F858000846DC
:1029A00090F8B50018B14FF4FA6010490880002083
:1029B00005F022FC0020074981F83F000220A1F821
:1029C0006E02002081F85D0281F85E02D8E700BF48
:1029D000D6E70000DC000020580000204E00002058
:1029E0005200002050000020540000201000002061
:1029F0000149C860704700000020024030B504461D
:102A00000425681F00F0BEF80546042D16D10C48B9
:102A1000006940F002000A49086108464461006903
:102A200040F040000861681F00F0ACF8054604481B
:102A3000006941F6FD71084001490861284630BD32
:102A40000020024004200B49C96801F0010109B1CE
:102A500001200EE00749C96801F0040109B1022014
:102A600007E00449C96801F0100109B1032000E042
:102A700004207047002002400348006940F08000B5
:102A800001490861704700000020024005490968BB
:102A900021F01001034A11601146096801431160D9
:102AA000704700000020024070B504460D46042621
:102AB000701F00F067F80646042E11D1094800691E
:102AC00040F00100074908612580701F00F05AF8A6
:102AD00006460448006941F6FE7108400149086154
:102AE000304670BD0020024078B506460C460425ED
:102AF00000200090401E00F045F80546042D24D12A
:102B00001348006940F00100114908613480681FD2
:102B100000F038F80546042D10D1B01C0090200CB0
:102B200000990880681F00F02DF8054608480069E4
:102B300041F6FE7108400649086106E00448006954
:102B400041F6FE71084002490861284678BD000040
:102B50000020024001460020034A106800F03800BF
:102B600008431060704700000020024002480349FB
:102B700048600348486070472301674500200240D1
:102B8000AB89EFCD00B502460423FFF75BFF034698
:102B900003E0FFF757FF0346521E012B01D1002A25
:102BA000F7D102B90523184600BD30B5024600240E
:102BB0004FF6FF750023002110E032F81100A0420B
:102BC00001DD32F8114032F81100A84201DA32F882
:102BD000115032F811000344481CC1B20A29ECDB41
:102BE00060191B1AC3F3CF0030BD00002DE9F0417E
:102BF00005460F4616460024FFF7B8FF3520FFF7BD
:102C0000F7FE0D4885420DD300BF08E0325D331951
:102C10005B7842EA03212819FFF746FFA41CBC4257
:102C2000F4D304E0FFF728FF0120BDE8F081FFF7AF
:102C300023FF0020F9E70000000001084548007864
:102C400001281BD144484078032803D042484078EB
:102C5000062813D1404890F8420001280ED13F4881
:102C60000088B0F57A7F09DB3B4890F8B10028B9BD
:102C70003948B0F8BC01B0F5167F04DA364890F850
:102C8000AA0101282ED1344890F84100012809D129
:102C90003148B0F8BC01B0F5167F03DB00202E49A7
:102CA00081F8AA012C4890F83D0058B92A4890F8BC
:102CB000C50038B90120284981F8C5004FF4FA70E1
:102CC000A1F8FA00244890F8C50018B32248B0F8DB
:102CD000FA00F8B90120204981F83D00002081F870
:102CE000C50036E01C4890F8B100012813D11A48FD
:102CF000B0F8BE01322809DB1748B0F8C00132280D
:102D000004DC0020144981F83D0022E00120124932
:102D100081F83D001DE0104890F83D0001280AD1DF
:102D20000D4890F8C50030B901200B4981F8C50065
:102D3000C820A1F8FA00084890F8C50048B1064834
:102D4000B0F8FA0028B90020034981F83D0081F865
:102D5000C500704700000020DC0000209C0000201F
:102D600010B504462948844208D10121042002F00C
:102D7000AFFA0021042002F0ABFA46E02448844276
:102D800008D10121082002F0A3FA0021082002F056
:102D90009FFA3AE01F48844208D10121102002F036
:102DA00097FA0021102002F093FA2EE01A4884428C
:102DB00008D10121202002F08BFA0021202002F00E
:102DC00087FA22E01548844208D10121402002F010
:102DD0007FFA0021402002F07BFA16E0104884427E
:102DE00008D10121802002F073FA0021802002F036
:102DF0006FFA0AE00B48844207D10121801502F0E6
:102E000067FA0021A01502F063FA10BD0008014026
:102E1000000C014000100140001401400018014066
:102E2000001C0140002001402DE9F0410246002530
:102E30000026002000230024002791F803C00CF096
:102E40000F0591F803C00CF0100CBCF1000F03D07B
:102E500091F802C04CEA050591F800C0BCF1000FE2
:102E600031D0146800202BE04FF0010C0CFA00F375
:102E7000B1F800C00CEA03069E4220D183004FF057
:102E80000F0C0CFA03F7BC4305FA03FC4CEA0404EC
:102E900091F803C0BCF1280F06D14FF0010C0CFAD9
:102EA00000FCC2F814C00AE091F803C0BCF1480F5E
:102EB00005D14FF0010C0CFA00FCC2F810C0401C08
:102EC0000828D1D31460B1F800C0BCF1FF0F34DD85
:102ED000546800202EE000F1080C4FF0010808FAB9
:102EE0000CF3B1F800C00CEA03069E4221D1830026
:102EF0004FF00F0C0CFA03F7BC4305FA03FC4CEA45
:102F0000040491F803C0BCF1280F05D100F1080CAE
:102F100008FA0CF8C2F8148091F803C0BCF1480F0D
:102F200007D100F1080C4FF0010808FA0CF8C2F8BC
:102F30001080401C0828CED35460BDE8F08100000A
:102F4000F0B50A46002300240021002500F00046C9
:102F5000B6F1004F02D11D4EF16901E01B4E7168C0
:102F6000C0F3034583B200F44016B6F5401F08D104
:102F700021F07061154E766826F07066134F7E6002
:102F800012E000F48016B6F5801F06D1032606FA7B
:102F900005F4A14341F0706106E0460D360103FAE5
:102FA00006F6B14341F0706122B1460D360103FAD5
:102FB00006F6314300F00046B6F1004F02D1034E51
:102FC000F16101E0014E7160F0BD000000000140C0
:102FD0000246002093680B400BB1012000E0002066
:102FE000704741617047016170470000024600214F
:102FF00007E0074830F81100904200DC03E0481C6D
:1030000001B26F29F5DB00BFA1F1290000B27047C2
:10301000A49C000870B503464FF6FF7000EA031544
:10302000002120E0002217E0144E481C36F8100062
:1030300036F81160801B00010A2690FBF6F0504321
:103040000E4E36F8116000EB0610A84201DC012498
:1030500004E00024501C02B20A2AE5DB00BF04B1E0
:1030600003E0481C01B26E29DCDB00BFA1F129009E
:1030700000EB800002EB400000B270BDA49C000891
:103080002DE9FC5F0646002439E000252DE02548A7
:1030900030F814100246601C32F81000081A0A2199
:1030A00090FBF1FB584606F0B1FB8246294606F03C
:1030B0000DFC81461B4931F8140006F0BFFB494660
:1030C000009006F00BFD8046304606F0B7FB414607
:1030D000019006F0C7FC01D801270BE000274FF054
:1030E0007E51284606F042FA05460F49284606F06A
:1030F000B9FBCCD300BF07B103E0601C04B26E2C57
:10310000C3DB00BF0849284606F09EFA8046A4F1BA
:10311000280006F07BFB8146414606F027FABDE811
:10312000FC9F0000C69B00080000204102460220D0
:103130001D4B83F89802184690F8980268B9002150
:1031400007E01A4830F81100904200DB04E0481C08
:1031500001B2B1F5487FF4DD23E0134890F89802FE
:10316000012807D1002100E003E040F27B308142DA
:10317000FADB16E00C4890F89802022811D10021E1
:103180000CE00B4800EB8100B0F90200904203DB39
:10319000074830F921007047481C01B2B1F5C86FEB
:1031A000EFDB6020F7E70000DC000020829D0008D4
:1031B0006CB6000800BFFEE71548B0F8600240B9E1
:1031C0004FF4FA70134908800020114981F8EE018C
:1031D0001CE01048008828B10E480088401E0D49A8
:1031E000088013E001200A4981F84500084640782C
:1031F000032807D008464078062803D008464078C0
:10320000072803D10120024981F8EE017047000030
:10321000DC00002096000020012035490870354868
:103220000078401E334908700846007820B92020F5
:10323000087001203049087030480078401E2F493E
:10324000087008460078002850D10A200870012034
:103250002B4908702B480078401E2A490870084600
:10326000007820B90A2008700120274908702748F3
:103270000078401E254908700846007820B91420BF
:10328000087001202249087022480078401E214918
:1032900008700846007820B93220087001201E49C5
:1032A00008701E480078401E1C49087008460078C7
:1032B00060B9642008700120194908701948008815
:1032C00020B118480088401E16490880164800782A
:1032D00020B115480078401E134908701348007843
:1032E00020B112480078401E104908707047000055
:1032F000240000202C000020260000202B000020AD
:10330000250000202D000020270000202E00002096
:10331000280000202F00002029000020300000207D
:103320002A0000201A0000200500002006000020CE
:103330004AF6AA20014908607047000000300040AA
:10334000002100220260426002728272C27400BFD9
:1033500005E0002300F10B0253544A1CD1B20829A6
:10336000F7DB704770B5C64890F84F00002864D16D
:10337000C34890F84E0000285FD1C14890F8B500CE
:1033800000285AD1BE48B0F84003BD49B1F83E13F9
:10339000401A462191FBF0F5284606F037FA04461C
:1033A000B74890F92900B649B1F8401388420ADDC0
:1033B0000120B34981F844004620A1F8F000EE2036
:1033C00081F849005BE1AE4890F92900AC49B1F8B9
:1033D0003E13884228DB0120A94981F84400462099
:1033E000A1F8F00091F92910A54AB2F83E23881AF5
:1033F00006F00CFA0646214606F068FA0546A14991
:1034000006F0B4F89E4988670846816F9E4806F02A
:103410005DFA06469D4906F017F9054606F0D6F90D
:10342000974981F849002AE100209549A1F8F00068
:1034300081F8440081F8490021E1914890F8440066
:10344000012807D18E484078012833D08C48407835
:1034500005282FD08A4890F84400012811D18C48C3
:103460000088B0F5FA7F04DA854890F8B1000128A9
:1034700007D18348407803281CD08148407806282B
:1034800018D07F4890F8440001287DD17C4890F8FE
:103490005A020028F9D17A4890F85902022809D036
:1034A000774890F85902012804D0754890F85902DD
:1034B0000528EAD17648008814281FDA704890F869
:1034C0004F00012804D06E4890F84E00012807D123
:1034D00001206B49A1F85C00662081F8490003E0F7
:1034E00000206749A1F85C00654890F8A602002812
:1034F0007BD0EE20624981F8490076E0604890F880
:103500004F00012804D05E4890F84E00012864D195
:103510005B4890F8440001285FD15949A1F85C004C
:10352000084690F8410001285FD10846B0F9A4028E
:10353000B0F5617F03DC332081F8490040E050485A
:10354000B0F9A402B0F5617F30DD4D48B0F9A402B6
:10355000B0F5AF6F2ADA4A48B0F9A402642190FBB3
:10356000F1F080B2C0EBC0006A21C1EB40052846F3
:1035700006F04CF94249C867C86F464906F072FA2E
:1035800004D844483E4900E05AE0C8673C48C16F4F
:103590003D4806F09BF906463C4906F055F80546BD
:1035A00006F014F9364981F8490009E03448B0F9C9
:1035B000A402B0F5AF6F03DBE520314981F8490083
:1035C0002F4890F929002E49B1F8401388420CDBAE
:1035D000EE202B4981F8490007E0294890F8440083
:1035E00018B900202649A1F85C002548B0F85C0015
:1035F00030B1234890F84900214981F84A003EE063
:103600001F4890F84400012804D11D48B0F8060274
:10361000642803DC1A48B0F8F00030B1184890F87C
:103620004A00174981F8490029E0154890F84400FC
:1036300028BB00201249A1F85C0081F849001EE077
:103640000F4890F84400012804D10D48B0F8060254
:10365000642803DC0A48B0F8F00030B1084890F85C
:103660004A00074981F8490009E0054890F84400FC
:1036700028B900200249A1F85C0081F8490070BD1A
:10368000DC0000200000A04100007F430000C84291
:103690009C0000200000B44210B51B48008820B1F7
:1036A00019480088401E184908801848008820B131
:1036B00016480088401E154908804FF48071144850
:1036C000FFF786FC78B14FF49670104908800E48D9
:1036D0000088B8B900200F4981F852004FF4967065
:1036E000094908800EE04FF49670074908800748A2
:1036F000008838B90120074981F852004FF49670CC
:103700000249088010BD000064000020660000200F
:1037100000100140DC00002010B55248008840B97C
:1037200001205149087000205049087001F050F8FC
:1037300002E000204C4908704C48B0F8E20120B982
:1037400001204A4981F8A50003E00020474981F89B
:10375000A50047480078002878D14FF4807145488B
:10376000FFF73FFC0120414981F85B0208460078E1
:1037700000284DD001203E4908703C4890F858027E
:1037800001281BD10020394981F8890081F8920075
:1037900081F8810081F8820081F8830081F890002F
:1037A00081F8960081F89B0081F89C0081F89D00CB
:1037B00081F89E0081F89F0081F8AB0000202B4922
:1037C00081F8A30181F85B0281F8B5004FF47A70AB
:1037D000A1F8960140F6B830A1F8E402A1F8E80299
:1037E000A1F8B8010120C87081F83A000846407875
:1037F0008870002081F8B100A1F86E0281F8B00055
:103800004FF4FA701C4908804FF448701B49088037
:103810000020164981F8460081F84400A1F84E02C4
:1038200081F8540281F84200A1F8F00081F8AA0161
:1038300081F8980081F8990081F8970081F8550285
:1038400081F8A901A1F8BC010AE0FFE70848007867
:10385000012805D101020748FFF7C5FB01F052F826
:1038600010BD00001A0000201C000020DC00002019
:1038700000000020000C01405600002058000020ED
:1038800000BFFEE710B5FE48B0F8700230B100206E
:10389000FB49A1F86C02A1F8680027E3F84890F80A
:1038A0005902052871DDF64890F85902F44981F86B
:1038B000E200084690F85A0220B1084690F8E2006B
:1038C000072804D1EE48B0F8F200002804DD0120FA
:1038D000EB4981F84E0003E00020E94981F84E00F1
:1038E000E74890F8E200052804D0E54890F8E200A7
:1038F000062804D10120E249A1F86C0205E000206D
:10390000DF49A1F86C0281F8E200DD4890F89600EA
:1039100030BBDC48008818BBD94890F88100F8B962
:10392000D74890F89D00D8B9D54890F8AB00B8B901
:10393000D34890F8A50098B9D14890F89B0078B981
:10394000CF4890F88F0058B9CD4890F89C0038B90E
:10395000CB4890F89E0018B9C94890F89F0058B11C
:10396000C74890F8420018B14FF4FA60C649088081
:10397000002004F041FC5CE2C34800880028FAD132
:10398000012004F039FC54E2FFE7BD4890F85902E9
:1039900002287DD1BA484078012879D0B8484078CB
:1039A0000528FAD0B748008878BBB54890F896004B
:1039B00058BBB34890F8810038BBB14890F89D00DF
:1039C00018BBAF4890F8AB00F8B9AD4890F8A50027
:1039D000D8B9AB4890F89B00B8B9A94890F88F00C7
:1039E00098B9A74890F89C0078B9A54890F89E002F
:1039F00058B9A34890F89F0038B9A14890F8A1029F
:103A000018B99F4890F8A60288B19D4890F84200E6
:103A100018B14FF4FA609C490880002004F0ECFBD8
:103A20000020974981F84F0081F84E0001E2964846
:103A3000008848B90120924981F84F00002081F8A0
:103A40004E00012004F0D8FB8D48B0F92E008C49BF
:103A500091F84C13401A8A49B1F81E13884206DDCA
:103A60008748B0F814038649A1F86200E1E1844870
:103A7000B0F92E00824991F84C13401A8049B1F8F0
:103A80002013884208DD7E48B0F816037C4900E028
:103A900043E0A1F86200CCE17948B0F92E00784902
:103AA00091F84C13401A7649B1F82213884224DD6C
:103AB0007348B0F816037249B1F81813411A7048E8
:103AC000B0F82023B0F82203401C101A91FBF0F14B
:103AD0006B48B0F92E006A4A92F84C23821A684863
:103AE000B0F82203401C101A654AB2F8182301FBF3
:103AF00000206349A1F862009BE16148B0F92E0003
:103B00005F4991F84C13401A00288FDD5C48B0F8EB
:103B100018035B49A1F862008BE1594890F85902FB
:103B200001287DD156484078012879D05448407802
:103B3000052875D05348008878BB514890F8960006
:103B400058BB4F4890F8810038BB4D4890F89D0015
:103B500018BB4B4890F8AB00F8B9494890F8A5005D
:103B6000D8B9474890F89B00B8B9454890F88F00FD
:103B700098B9434890F89C0078B9414890F89E0065
:103B800058B93F4890F89F0038B93D4890F8A102D5
:103B900018B93B4890F8A60288B1394890F842001D
:103BA00018B14FF4FA6038490880002004F024FB73
:103BB0000020334981F84F0081F84E0039E1324846
:103BC000008848B901202E4981F84F00002081F873
:103BD0004E00012004F010FB2948B0F92E002849BE
:103BE00091F85313401A2649B1F81E13884206DD96
:103BF0002348B0F814032249A1F8620019E12048D3
:103C0000B0F92E001E4991F85313401A1C49B1F81F
:103C10002013884208DD1A48B0F81603184900E05E
:103C20004AE0A1F8620004E11548B0F92E001449F9
:103C300091F85313401A1249B1F8221388422BDD30
:103C40000F48B0F816030E49B1F81813411A0C4882
:103C5000B0F82023B0F82203401C101A91FBF0F1B9
:103C60000748B0F92E00064A92F85323821A0448F6
:103C7000B0F82203401C101A014AB2F8182305E0DC
:103C8000DC000020B80000201000002001FB002014
:103C9000FB49A1F86200CCE0F948B0F92E00F849E0
:103CA00091F85313401A002805DDF548B0F81803C1
:103CB000F349A1F86200BCE0F14890F859020528E8
:103CC00043D1F048008878BBED4890F8960058BB87
:103CD000EB4890F8810038BBE94890F89D0018BB8C
:103CE000E74890F8AB00F8B9E54890F8A500D8B9D6
:103CF000E34890F89B00B8B9E14890F88F0098B974
:103D0000DF4890F89C0078B9DD4890F89E0058B9DB
:103D1000DB4890F89F0038B9D94890F8A10218B94B
:103D2000D74890F8A60288B1D54890F8420018B15B
:103D30004FF4FA60D4490880002004F05DFA0020B6
:103D4000CF4981F84F0081F84E0072E0CE480088DC
:103D500048B90120CA4981F84F00002081F84E007F
:103D6000012004F049FAC648B0F92E00C44991F880
:103D70005413401AC249B1F81E13884206DDC048E8
:103D8000B0F81403BE49A1F8620052E0BC48B0F993
:103D90002E00BB4991F85413401AB949B1F82013C9
:103DA000884206DDB648B0F81603B549A1F86200AE
:103DB0003FE0B348B0F92E00B14991F85413401ACE
:103DC000AF49B1F82213884224DDAD48B0F816039C
:103DD000AB49B1F81813411AA948B0F82023B0F83C
:103DE0002203401C101A91FBF0F1A548B0F92E00F7
:103DF000A34A92F85423821AA148B0F82203401C27
:103E0000101A9F4AB2F8182301FB00209C49A1F820
:103E100062000EE09A48B0F92E00994991F85413C7
:103E2000401A002805DD9648B0F818039449A1F817
:103E30006200934890F85902012809D0904890F800
:103E40005902052804D08E4890F8590202287DD1E5
:103E50008B484078012803D0894840780528F6D15E
:103E60008848008878BB864890F8960058BB8448FC
:103E700090F8810038BB824890F89D0018BB8048BC
:103E800090F8AB00F8B97E4890F8A500D8B97C4806
:103E900090F89B00B8B97A4890F88F0098B97848A4
:103EA00090F89C0078B9764890F89E0058B974480C
:103EB00090F89F0038B9724890F8A10218B970487C
:103EC00090F8A60298B16E4890F8420018B14FF4ED
:103ED000FA606D490880002004F08EF900206849DE
:103EE00081F84F0081F84E00A1F8620079E3644840
:103EF00090F8B00000BB64480088E8B90120604930
:103F000081F84F00084690F82010407F801C8142C5
:103F100007DB5B484078012803D1594981F84E00FE
:103F200007E057484078052803D10120544981F81B
:103F30004E00012004F060F9514890F84E0001282D
:103F400073D14F4890F820004D4900E0CAE1497F05
:103F5000401A4B49B1F8381388420ADD4848B0F896
:103F600030034749B1F8361308444549A1F86200C7
:103F700037E3434890F820004149497F401A4049BF
:103F8000B1F83A1388420ADD3D48B0F832033C49A3
:103F9000B1F8361308443A49A1F8620021E33848E1
:103FA00090F820003649497F401A3549B1F83C1352
:103FB000884227DD3248B0F832033149B1F8341372
:103FC000411A2F48B0F83A23B0F83C03401C101AAD
:103FD00091FBF0F12A4890F82000294A527F821A7A
:103FE0002748B0F83C03401C101A254AB2F8342385
:103FF000234BB3F836331A4401FB00202049A1F8C3
:104000006200EEE21E4890F820001D49497F401AE8
:1040100000280BDD1A48B0F834031949B1F83613FB
:1040200008441749A1F86200DBE211E0144890F857
:1040300020001349497F401A002804DC0020104961
:1040400081F84E00CDE200200D49A1F86200C8E2DF
:104050000B4890F8590201286CD10948B0F92E009C
:10406000074991F85313401A0549B1F81E138842C5
:104070000CDD0348B0F814030149A1F86200B0E276
:10408000DC000020B800002010000020FE48B0F93D
:104090002E00FD4991F85313401AFB49B1F8201343
:1040A000884206DDF848B0F81603F749A1F8620027
:1040B00097E2F548B0F92E00F34991F85313401AEE
:1040C000F149B1F82213884224DDEF48B0F8160315
:1040D000ED49B1F81813411AEB48B0F82023B0F8B5
:1040E0002203401C101A91FBF0F1E748B0F92E00B2
:1040F000E54A92F85323821AE348B0F82203401CA1
:10410000101AE14AB2F8182301FB0020DE49A1F899
:10411000620066E2DC48B0F92E00DB4991F85313E7
:10412000401A00288EDDD848B0F81803D649A1F807
:10413000620056E2D44890F85902022866D1D2486B
:10414000B0F92E00D04991F84C13401ACE49B1F87D
:104150001E13884206DDCC48B0F81403CA49A1F802
:1041600062003EE2C848B0F92E00C74991F84C13EE
:10417000401AC549B1F82013884206DDC248B0F89C
:104180001603C149A1F862002BE2BF48B0F92E0026
:10419000BD4991F84C13401ABB49B1F8221388422B
:1041A00024DDB948B0F81603B749B1F81813411A1D
:1041B000B548B0F82023B0F82203401C101A91FB38
:1041C000F0F1B148B0F92E00AF4A92F84C23821AB0
:1041D000AD48B0F82203401C101AAB4AB2F81823BD
:1041E00001FB0020A849A1F86200FAE1A648B0F955
:1041F0002E00A54991F84C13401A002889DDA248E9
:10420000B0F81803A049A1F86200EAE19E4890F8CE
:10421000590205288DD19C48B0F92E009A4991F891
:104220005413401A9849B1F81E13884206DD964887
:10423000B0F814039449A1F86200D2E19248B0F9B1
:104240002E00914991F85413401A8F49B1F8201368
:10425000884206DD8C48B0F816038B49A1F862004D
:10426000BFE18948B0F92E00874991F85413401AEC
:104270008549B1F82213884224DD8348B0F816033B
:104280008149B1F81813411A7F48B0F82023B0F8DB
:104290002203401C101A91FBF0F17B48B0F92E006C
:1042A000794A92F85423821A7748B0F82203401CC6
:1042B000101A754AB2F8182301FB00207249A1F8C0
:1042C00062008EE17048B0F92E006F4991F85413E6
:1042D000401A002889DD6C48B0F818036A49A1F833
:1042E00062007EE1684890F85902012809D16648C9
:1042F00090F85902052804D1634890F85902022821
:104300007ED061484078012803D05F484078052876
:1043100076D15D4890F87D02D0B95C480088B8B984
:10432000594890F8960098B9574890F89D0078B988
:10433000554890F8A50058B9534890F88F0038B9FF
:10434000514890F8A10218B94F4890F8A60298B1C8
:104350004D4890F8420018B14FF4FA604C4908807B
:10436000002003F049FF0020474981F84F0081F801
:104370004E00A1F8620034E14548008850BB424835
:104380004078012826D100203F4981F84F00084697
:1043900090F8B00030B9084690F87C02B1F81213DA
:1043A00088420ADA0020384981F84E0003F024FFE1
:1043B00000203549A1F862000CE0334890F8201045
:1043C000407F801C814205DB01202F4981F84E008F
:1043D00003F012FF2C484078012878D12A4890F841
:1043E0004E00012874D1284890F820002649497FC2
:1043F000401A2549B1F8381388420BDD224800E005
:10440000B4E0B0F830032049A1F862000720A1F819
:104410005600E6E01C4890F820001B49497F401AEE
:104420001949B1F83A13884209DD1748B0F8320348
:104430001549A1F862000620A1F85600D1E0124803
:1044400090F820001049497F401A0F49B1F83C13F9
:1044500088424FDD0C48B0F832030B49B1F83413F1
:10446000411A0948B0F83A23B0F83C03401C101A2E
:1044700091FBF0F1044890F82000034A527F821A21
:104480000148B0F83C0305E0DC000020B800002043
:1044900010000020401C101A934AB2F8342301FB8C
:1044A00000209149A1F862000320A1F856000846B7
:1044B00090F82000497F401A8B49B1F83C13401A0C
:1044C000032806DD05208849A1F8560089E043E06D
:1044D00037E0854890F820008349497F401A824997
:1044E000B1F83C13401A02287BDD04207E49A1F874
:1044F000560076E07C4890F820007B49497F401ABE
:10450000002809DD7848B0F834037749A1F8620043
:104510000220A1F8560064E0734890F82000724928
:10452000497F401A00285CDC00206F4981F84E006A
:10453000A1F862000120A1F85600002003F05CFE03
:104540004FE000206849A1F8620003F055FE00200A
:10455000654981F84E0044E063484078052840D121
:1045600041F288306049A1F862003AE05E4890F874
:104570005902032804D05C4890F85902042815D148
:1045800000205949A1F86C0281F8E200084690F831
:10459000420018B14FF4FA6054490880002003F03B
:1045A0002BFE00205049A1F862001AE04E4890F816
:1045B0005902B0B900204C49A1F86C0281F8E20020
:1045C000084690F8420018B14FF4FA604749088055
:1045D000002003F011FE00204349A1F8620081F899
:1045E0004F00414890F8590205280CD13E4890F8F8
:1045F000E60240B93C4890F8AC0020B901203A49A5
:1046000081F838002CE03848B0F97802142823DD0E
:10461000354890F8E602F8B9334890F8AC00D8B9BC
:104620003148B0F978023049B1F97A12401A0B28B2
:1046300004DB01202C4981F8380011E02A48B0F948
:1046400078022949B1F97A12401A082808DC0020BA
:10465000254981F8380003E00020234981F838001B
:10466000214890F8550301283CD11F48B0F8480371
:10467000012819D11C4890F8F702A8B91A4890F8F7
:10468000F80288B9184890F8830068B9164890F87D
:10469000EA0248B90120144981F83900084690F827
:1046A0004A0381F8D3021DE00F48B0F848030228FE
:1046B00014D10D4890F8F70280B90B4890F8F80231
:1046C00060B9094890F8830040B9074890F8EA02B9
:1046D00020B90120044981F8390003E00020024993
:1046E00081F8390010BD0000DC000020100000201F
:1046F000704708B54FF4A06000F060F814208DF802
:10470000000000208DF801008DF8020001208DF8D6
:104710000300684600F01AF840208DF800000020E1
:104720008DF8010001208DF80200684600F00EF8B7
:104730001C208DF8000000208DF8010002208DF86B
:104740000200684600F002F808BD000070B50021C4
:1047500000230F22C47804B3154C246804F4E064E9
:10476000C4F5E064210AC1F10403CA40447804FAA4
:1047700003F184781440214309010E4C0678A155B9
:10478000047804F01F050124AC4005786D11AD00DC
:1047900005F1E025C5F8004109E0047804F01F05A3
:1047A0000124AC40044D0678761145F8264070BDD2
:1047B0000CED00E000E400E080E100E0024901438C
:1047C000024A1160704700000000FA050CED00E09D
:1047D00010B54748007820B1454890F8D700012827
:1047E0007ED14348007818B142480078012818D19A
:1047F0003F48C078022814D000203D4981F85C026F
:1048000081F85D020846B0F8600200B110BD0220D8
:104810003749C8700846407818B14FF4E16036490E
:1048200008803348C078022860D1314890F8590296
:1048300001280AD02E4890F8420018B14FF4FA60CF
:104840002E490880002003F0D7FC02202849A1F857
:104850006E020846B0F8580010B92D20A1F8B40136
:1048600025480088002841D12148B0F8B401282803
:104870003CDB002020490880214908701C49C87091
:10488000487081F8590208704FF4C870A1F8C60149
:104890000020A1F8B40181F83D0081F8DB0081F827
:1048A0004E0081F8450081F83A0081F8A70181F8AF
:1048B000A80181F8AD0181F8AC01A1F8B00181F83F
:1048C000B10081F8B200A1F87C0181F8AA0181F859
:1048D0004200012081F8A30181F85B02002000E082
:1048E00004E0A1F86E0200F08BF88FE700BF8DE7BF
:1048F000DC0000201C0000200C0000201000002024
:104900000000002010B53D480078012873D13B48D5
:1049100090F8800000286ED101203849C870084600
:10492000407801282ED1002081F8B10081F8B20032
:1049300081F8AA0181F8A70181F85D0281F85E0281
:10494000084690F85A02002855D0012081F8450009
:10495000084690F87C02B1F81213884204DB27481D
:1049600090F87D02012803D10020244981F84E00EF
:10497000224890F8B00001283DD100201F4981F85D
:104980004E0038E01D484078032834D01B4840785A
:10499000052814D10020194981F8B10081F8B2002E
:1049A00081F8AA0181F8A70181F85D0281F85E0211
:1049B00002F05AFE0020114981F8D3001BE00F4895
:1049C0004078062817D00D484078072813D00B48A8
:1049D000407802280FD10020084981F8A70181F80A
:1049E000AA0181F8B10081F8B20081F85D0281F876
:1049F0005E0202F0FDFDFFF7EBFE10BDDC000020C3
:104A0000444890F85802D8B90020424981F88900FA
:104A100081F8920081F8810081F8820081F883009A
:104A200081F8900081F8960081F89B0081F89C0045
:104A300081F89D0081F89E0081F89F0081F8AB000D
:104A40004FF47A703349A1F8E402A1F8E8024FF478
:104A50009670A1F8D402002081F8E60281F8EA02FB
:104A600081F8CA0081F8800081F8A60081F88400EE
:104A700081F8850081F8860081F8870081F8880038
:104A800081F8A00281F8A10281F88D0081F88E00E2
:104A900081F88F0081F8910081F8AB0081F89400D3
:104AA00081F8950081F8C90081F8930081F8B3007E
:104AB000A1F89001012081F89A01002081F8CF002F
:104AC00081F8CE0081F8CD0081F8C30081F8E200C2
:104AD000114908700F49A1F83602A1F83802A1F86F
:104AE000CA0181F8A60181F84202642081F8DC0045
:104AF0000020A1F8DC01094908810649A1F8FC0061
:104B000081F8DE0081F8E1001420A1F82602A1F866
:104B100046027047DC000020400000209C1B002063
:104B200070B5FE4890F82000FC49497F401A0028E3
:104B300004DC0020F94981F8C100E5E0F74991F86B
:104B40002010F64A527F881A04F05FFA0446F44AAD
:104B5000F44B04F085FA04D80120F04981F8C10033
:104B6000D2E0EE4991F82010EC4A527F881A04F006
:104B70004CFA0446EA4AEC4B04F072FA04D80220DC
:104B8000E64981F8C100BFE0E44991F82010E34A0A
:104B9000527F881A04F039FA04464FF03332E34B5F
:104BA00004F05EFA04D80320DC4981F8C100ABE0D0
:104BB000DA4991F82010D94A527F881A04F025FA70
:104BC0000446D74ADA4B04F04BFA04D80420D34900
:104BD00081F8C10098E0D14991F82010CF4A527F66
:104BE000881A04F012FA04460022D24B04F038FA74
:104BF00004D80520C94981F8C10085E0C74991F86A
:104C00002010C64A527F881A04F0FFF904464FF07C
:104C10003332C94B04F024FA04D80620BF4981F886
:104C2000C10071E0BD4991F82010BC4A527F881A3A
:104C300004F0EBF904464FF06632C04B04F010FA72
:104C400004D80720B54981F8C1005DE0B34991F867
:104C50002010B24A527F881A04F0D7F90446B04AAD
:104C6000B74B04F0FDF904D80820AC4981F8C10025
:104C70004AE0AA4991F82010A84A527F881A04F005
:104C8000C4F90446AF4AB04B04F0EAF904D809204D
:104C9000A24981F8C10037E0A04890F820009F4960
:104CA000497F401A012804DC0A209C4981F8C10090
:104CB0002AE09A4890F820009849497F401A022833
:104CC00004DC0B20954981F8C1001DE0934890F861
:104CD00020009249497F401A052804DC0C208F49A6
:104CE00081F8C10010E08D4890F820008B49497F81
:104CF000401A0A2804DC0D20884981F8C10003E02D
:104D00000E20864981F8C1008448B0F85A0130B1BC
:104D10008248B0F85A01401E8049A1F85A017F48E4
:104D2000B0F85C0130B17D48B0F85C01401E7B49B1
:104D3000A1F85C017948B0F85E0130B17748B0F86D
:104D40005E01401E7549A1F85E017448B0F860012B
:104D500030B17248B0F86001401E7049A1F860019E
:104D60006E4890F820006D49497F401A002811DCF8
:104D70006A48B0F85A0118B90020684981F8C200A1
:104D80004FF4FA706549A1F85C01A1F85E01A1F841
:104D9000600144E0614890F820006049497F401A72
:104DA000012811DC5D48B0F85C0118B901205B49AD
:104DB00081F8C2004FF4FA705849A1F85A01A1F8DD
:104DC0005E01A1F860012AE0544890F820005349A0
:104DD000497F401A022811DC5048B0F85E0118B92A
:104DE00002204E4981F8C2004FF4FA704B49A1F8F5
:104DF0005A01A1F85C01A1F8600110E04748B0F841
:104E0000600118B90320454981F8C2004FF4FA70D7
:104E10004249A1F85A01A1F85C01A1F85E013F489E
:104E2000B0F8560130B13D48B0F85601401E3B493C
:104E3000A1F856013948B0F8580130B13748B0F8F8
:104E40005801401E3549A1F85801344890F8B50082
:104E5000012816D131484078032812D12F48B0F8E4
:104E6000B201401C2D49A1F8B2010846B0F8B201C8
:104E70004FF6F071884208DB08462849A1F8B201D4
:104E800003E000202549A1F8B20124484078062813
:104E900003D022484078032815D1204890F84200DA
:104EA00088B11E48B0F83A02401C1C49A1F83A02E9
:104EB0000846B0F83A02B0F57A7F08DB4FF47A7012
:104EC000A1F83A0203E000201449A1F83A0213487D
:104ED000B0F8E801B0F5FA7F4EDB104840780128C1
:104EE00007D00E484078022803D00C4840780528A7
:104EF00004D10020094981F8C3003DE0074890F93A
:104F00002A001E2827DA0548B0F8600220B10348BD
:104F100090F8EE0101281ED0004817E0DC000020C8
:104F20009A9999999999B93F9999C93F3333D33F40
:104F30009999D93F0000E03F3333E33F6666E63F8F
:104F40009999E93FCDCCCCCCCCCCEC3FB0F83A022F
:104F5000B0F57A7F0CDB7148B0F8580118B9012020
:104F60006E4981F8C3000A206C49A1F8560103E09C
:104F70000A206A49A1F858016848B0F8680130B1C0
:104F80006648B0F86801401E6449A1F868016348AA
:104F9000B0F86A0130B16148B0F86A01401E5F495B
:104FA000A1F86A015D4890F928005C4991F8201049
:104FB000884214DD594890F928005849497F8842B1
:104FC0000DDD5648B0F8680118B90020534981F842
:104FD000C6004FF4FA705149A1F86A010CE04F483D
:104FE000B0F86A0118B901204C4981F8C6004FF4A5
:104FF000FA704A49A1F868014848B0F86C0130B12C
:105000004648B0F86C01401E4449A1F86C01434881
:10501000B0F86E0130B14148B0F86E01401E3F4912
:10502000A1F86E013D4890F8200017280DDA3B48A2
:10503000B0F86C0118B90020384981F8C7004FF466
:10504000FA703649A1F86E010CE03448B0F86E01F0
:1050500018B90120314981F8C7004FF4FA702F497F
:10506000A1F86C012D48B0F8740130B12B48B0F8AC
:105070007401401E2949A1F874012848B0F876014E
:1050800030B12648B0F87601401E2449A1F87601D7
:105090002248B0F8780130B12048B0F87801401EBD
:1050A0001E49A1F878011D4890F92B0000280FDA5D
:1050B0001A48B0F8740118B90020184981F8C800DE
:1050C0004FF4FA701549A1F87601A1F8780123E0B0
:1050D000124890F92B000F280FDC1048B0F8760129
:1050E00018B901200D4981F8C8004FF4FA700B4936
:1050F000A1F87401A1F878010EE00848B0F8780131
:1051000018B90220054981F8C8004FF4FA70034924
:10511000A1F87401A1F8760170BD0000DC00002048
:105120000020374991F84710364A1288914205DD30
:1051300034490988491C334A11800BE0304991F801
:105140004710304A1288914204DA2E490988491ED4
:105150002C4A11802A4991F8441001292BD1284961
:1051600091F8421039BB264991F849104FF47A72F0
:1051700092FBF1F1C8B22249B1F8AE11491C204AA4
:10518000A2F8AE111146B1F8AE11814236DD1146DA
:1051900091F849101B4A121D1288914206DD1949E7
:1051A000091D0988491C174A121D11800021144A43
:1051B000A2F8AE1122E00021114AA2F8AE11114668
:1051C00091F849100F4A121D1288914207DD0D49CE
:1051D000091D0988491C0B4A121D11800EE008495F
:1051E00091F84910074A121D1288914206DA0549C2
:1051F000091D0988491E034A121D118070470000CD
:10520000DC000020342C0140704700000848008872
:1052100020B107480088401E0549088005480088DD
:1052200020B104480088401E0249088070470000F1
:105230005C0000205E00002001460020034A506808
:1052400020F44040084350607047000000100240C6
:1052500029B1064A52690243044B5A6104E0034AE9
:1052600052698243014B5A617047000000100240AE
:1052700029B1064AD2690243044BDA6104E0034AC9
:10528000D2698243014BDA6170470000001002408E
:1052900029B1064A12690243044B1A6104E0034A29
:1052A00012698243014B1A617047000000100240EE
:1052B00029B1064A92690243044B9A6104E0034A09
:1052C00092698243014B9A617047000000100240CE
:1052D00029B1064AD2680243044BDA6004E0034A6B
:1052E000D2688243014BDA60704700000010024030
:1052F0001348006840F00100114908600846406802
:10530000104908400E494860084600680E490840A8
:105310000B4908600846006820F4802008600846B1
:10532000406820F4FE0048600846006820F0A05065
:1053300008604FF47F0088600020C862704700005A
:10534000001002400000FFF0FFFFF6FE10B501461E
:105350000022002300204A11012A02D1094C2368AF
:1053600006E0022A02D1074C236A01E0054C636A79
:1053700001F01F02012494401C400CB1012000E008
:10538000002010BD001002400248406800F00C00F0
:10539000704700000010024001460020034A506898
:1053A00020F0F000084350607047000000100240F9
:1053B0001149096821F480310F4A116011460968CA
:1053C00021F480211160B0F5803F03D0B0F5802F2B
:1053D0000ED106E00849096841F48031064A11609F
:1053E00007E00549096841F4A021034A116000E083
:1053F00000BF00BF704700000010024001460020BF
:10540000034A506820F4E060084350607047000091
:105410000010024001460020034A506820F460500A
:1054200040EAC10050607047001002400146002071
:10543000034A506820F003000843506070470000A2
:105440000010024038B5002000900024002500BF65
:105450003120FFF77BFF05460098401C00904FF677
:10546000FF710098884201D0002DF1D03120FFF764
:105470006DFF08B1012400E00024204638BD7047CC
:1054800010B51A48008820B118480088401E1749F6
:1054900008801748008820B115480088401E14492C
:1054A000088040211348FDF793FD78B14FF49670C2
:1054B0000F4908800D480088B8B900200E4981F8CE
:1054C00054004FF49670094908800EE04FF496702E
:1054D000064908800648008838B90120064981F845
:1054E00054004FF496700249088010BD6C000020F3
:1054F0006E00002000100140DC00002010B51A48AA
:10550000008820B118480088401E174908801748B5
:10551000008820B115480088401E14490880802169
:105520001348FDF755FD78B14FF496700F49088088
:105530000D480088B8B900200E4981F855004FF495
:105540009670094908800EE04FF49670064908806D
:105550000648008838B90120064981F855004FF403
:1055600096700249088010BD700000207200002073
:1055700000100140DC00002010B500F001F810BD63
:105580000CB50020019000904048006840F4803045
:105590003E49086000BF3D48006800F400300090BC
:1055A0000198401C0190009820B94FF6FF710198B6
:1055B0008842F0D13548006800F4003010B1012075
:1055C000009001E000200090009801285CD1304854
:1055D000006840F010002E4908600846006820F07E
:1055E000030008600846006840F002000860274891
:1055F0004068264948600846406848600846406858
:1056000040F4806048600846C06A224908401F494B
:10561000C8620846C06A204908431C49C862084657
:10562000006840F08060086000BF1848006800F023
:1056300000600028F9D01548406820F47C10134918
:1056400048600846406840F4E81048600846006832
:1056500040F08070086000BF0C48006800F00070E7
:105660000028F9D00948406820F003000749486045
:105670000846406840F00200486000BF03484068A8
:1056800000F00C000828F9D10CBD00000010024009
:105690000020024000F0FEFF4406010000B585B086
:1056A0000020FFF7C9FD01214802FFF701FE39483C
:1056B000FBF774F80020009001208DF804008DF8AD
:1056C00005004FF460200290002003900A208DF81E
:1056D000100069462F48FBF7A3F804230122082194
:1056E0002C48FBF7C5F80423022201212948FBF7C7
:1056F000BFF80423032211462648FBF7B9F8042318
:105700001A460D212348FBF7B3F80423052211465E
:105710002048FBF7ADF80423062211461D48FBF78D
:10572000A7F80423072209211A48FBF7A1F804234C
:10573000082200211748FBF79BF8042309220221C5
:105740001448FBF795F804230A220E211148FBF7B1
:105750008FF801210F48FBF716F801210D48FBF7E0
:1057600007F80C48FBF7E0F800BF0A48FBF74EF8D3
:105770000028FAD10748FBF7E0F900BF0548FBF71E
:105780003BF80028FAD101210248FBF7CBF905B01C
:1057900000BD00000024014010B5FBF733FB0122DF
:1057A00002210448FBF7B2FD012202210248FBF767
:1057B000ADFD10BD006400400068004000B58BB036
:1057C00001210846FFF744FD1148FCF7C5FD1148CB
:1057D000009011480190002002900A2003900020C0
:1057E00004908020059040000690800007902020C3
:1057F00008900002099000200A9069460448FCF7CE
:1058000051FE01210248FCF79BFD0BB000BD0000DA
:10581000080002404C2401404404002008B5012146
:105820003D20FFF745FD01213548FDF789FB35484F
:10583000406820F02000334948603348FDF790FA73
:105840007F20ADF8000000208DF8030069462E4847
:10585000FDF7EAFA4FF40340ADF8000002208DF89E
:10586000020010208DF8030069462748FDF7DCFA96
:105870004FF440712448FDF7B6FB2448FDF770FA59
:105880000320ADF8000000208DF8030069461F4892
:10589000FDF7CAFA4FF46170ADF8000002208DF8F0
:1058A000020010208DF8030069461848FDF7BCFA85
:1058B0001748FDF755FA4FF4E070ADF800000420EA
:1058C0008DF8030069461248FDF7AEFA1820ADF8CE
:1058D000000000208DF8030069460D48FDF7A4FA8A
:1058E0004FF4F840ADF8000002208DF802001020BF
:1058F0008DF8030069460648FDF796FA08BD0000DA
:1059000000023000002004E000080140000C0140CB
:105910000010014010B5FFF7EBFC4FF48030FFF7AB
:1059200047FDFFF78FFD0446012C17D11020FDF72E
:10593000ADF80020FDF70EF90020FFF72DFD002047
:10594000FFF768FD0020FFF759FD0120FFF76EFD0E
:1059500000BFFFF719FD0428FBD101E000BFFEE7FF
:1059600010BD0EB501210846FFF782FC4FF08040C4
:1059700000F07CFF4FF47A50ADF804000020ADF841
:105980000000ADF80600ADF8020069464FF0804017
:1059900001F012F90121880700F03EFF01221146B3
:1059A000900701F057F80121880700F044FF0EBD71
:1059B00000B589B00121C802FFF77AFC284800F041
:1059C00055FF0720ADF814000020ADF81600FE20AA
:1059D000ADF818000020ADF81A0001208DF81C0069
:1059E00005A91F4801F0E8F86020ADF80400012087
:1059F000ADF806000020ADF80800ADF80A0002205E
:105A0000ADF80C000020ADF80E004FF48070ADF83A
:105A100010000020ADF8120001A9114801F024F88F
:105A200001A90F4801F076F808210D4801F068F847
:105A300001210B4800F0FFFE4FF44070ADF820004C
:105A400002208DF8220018208DF8230008A90548AF
:105A5000FDF7EAF90121024800F0F9FE09B000BDA6
:105A6000002C0140000801407047000010B51648A6
:105A7000006840F001001449086008464068134976
:105A800008401149486008460068114908400E491D
:105A900008600846006820F48020086008464068D6
:105AA00020F4FE0048600846006820F0A05008601E
:105AB0004FF47F0088600020C862FFF75DFD4FF063
:105AC00000600449086010BD001002400000FFF0B3
:105AD000FFFFF6FE08ED00E010B5FFF79FFEFFF7B1
